{
  "contractName": "Investment",
  "abi": [
    {
      "inputs": [
        {
          "internalType": "uint256",
          "name": "",
          "type": "uint256"
        }
      ],
      "name": "allCompanyInvestes",
      "outputs": [
        {
          "internalType": "uint256",
          "name": "cInvstId",
          "type": "uint256"
        },
        {
          "internalType": "string",
          "name": "name",
          "type": "string"
        },
        {
          "internalType": "uint256",
          "name": "companyId",
          "type": "uint256"
        },
        {
          "internalType": "string",
          "name": "country",
          "type": "string"
        },
        {
          "internalType": "uint256",
          "name": "last",
          "type": "uint256"
        },
        {
          "internalType": "uint256",
          "name": "hight",
          "type": "uint256"
        },
        {
          "internalType": "uint256",
          "name": "low",
          "type": "uint256"
        },
        {
          "internalType": "uint256",
          "name": "changePercentage",
          "type": "uint256"
        }
      ],
      "stateMutability": "view",
      "type": "function",
      "constant": true
    },
    {
      "inputs": [
        {
          "internalType": "uint256",
          "name": "",
          "type": "uint256"
        }
      ],
      "name": "allInvest",
      "outputs": [
        {
          "internalType": "uint256",
          "name": "investId",
          "type": "uint256"
        },
        {
          "internalType": "uint256",
          "name": "clientId",
          "type": "uint256"
        },
        {
          "internalType": "uint256",
          "name": "investerId",
          "type": "uint256"
        },
        {
          "internalType": "string",
          "name": "investType",
          "type": "string"
        },
        {
          "internalType": "uint256",
          "name": "user_value",
          "type": "uint256"
        },
        {
          "internalType": "uint256",
          "name": "project_id",
          "type": "uint256"
        }
      ],
      "stateMutability": "view",
      "type": "function",
      "constant": true
    },
    {
      "inputs": [
        {
          "internalType": "uint256",
          "name": "",
          "type": "uint256"
        }
      ],
      "name": "allWallet",
      "outputs": [
        {
          "internalType": "uint256",
          "name": "id",
          "type": "uint256"
        },
        {
          "internalType": "string",
          "name": "name",
          "type": "string"
        },
        {
          "internalType": "uint256",
          "name": "money",
          "type": "uint256"
        },
        {
          "internalType": "string",
          "name": "currencyType",
          "type": "string"
        },
        {
          "internalType": "uint256",
          "name": "userId",
          "type": "uint256"
        }
      ],
      "stateMutability": "view",
      "type": "function",
      "constant": true
    },
    {
      "inputs": [
        {
          "internalType": "uint256",
          "name": "",
          "type": "uint256"
        }
      ],
      "name": "companyInvests",
      "outputs": [
        {
          "internalType": "uint256",
          "name": "cInvstId",
          "type": "uint256"
        },
        {
          "internalType": "string",
          "name": "name",
          "type": "string"
        },
        {
          "internalType": "uint256",
          "name": "companyId",
          "type": "uint256"
        },
        {
          "internalType": "string",
          "name": "country",
          "type": "string"
        },
        {
          "internalType": "uint256",
          "name": "last",
          "type": "uint256"
        },
        {
          "internalType": "uint256",
          "name": "hight",
          "type": "uint256"
        },
        {
          "internalType": "uint256",
          "name": "low",
          "type": "uint256"
        },
        {
          "internalType": "uint256",
          "name": "changePercentage",
          "type": "uint256"
        }
      ],
      "stateMutability": "view",
      "type": "function",
      "constant": true
    },
    {
      "inputs": [],
      "name": "count",
      "outputs": [
        {
          "internalType": "uint256",
          "name": "",
          "type": "uint256"
        }
      ],
      "stateMutability": "view",
      "type": "function",
      "constant": true
    },
    {
      "inputs": [],
      "name": "cpyId",
      "outputs": [
        {
          "internalType": "uint256",
          "name": "",
          "type": "uint256"
        }
      ],
      "stateMutability": "view",
      "type": "function",
      "constant": true
    },
    {
      "inputs": [
        {
          "internalType": "uint256",
          "name": "",
          "type": "uint256"
        }
      ],
      "name": "investers",
      "outputs": [
        {
          "internalType": "uint256",
          "name": "investId",
          "type": "uint256"
        },
        {
          "internalType": "uint256",
          "name": "clientId",
          "type": "uint256"
        },
        {
          "internalType": "uint256",
          "name": "investerId",
          "type": "uint256"
        },
        {
          "internalType": "string",
          "name": "investType",
          "type": "string"
        },
        {
          "internalType": "uint256",
          "name": "user_value",
          "type": "uint256"
        },
        {
          "internalType": "uint256",
          "name": "project_id",
          "type": "uint256"
        }
      ],
      "stateMutability": "view",
      "type": "function",
      "constant": true
    },
    {
      "inputs": [
        {
          "internalType": "uint256",
          "name": "",
          "type": "uint256"
        }
      ],
      "name": "wallets",
      "outputs": [
        {
          "internalType": "uint256",
          "name": "id",
          "type": "uint256"
        },
        {
          "internalType": "string",
          "name": "name",
          "type": "string"
        },
        {
          "internalType": "uint256",
          "name": "money",
          "type": "uint256"
        },
        {
          "internalType": "string",
          "name": "currencyType",
          "type": "string"
        },
        {
          "internalType": "uint256",
          "name": "userId",
          "type": "uint256"
        }
      ],
      "stateMutability": "view",
      "type": "function",
      "constant": true
    },
    {
      "inputs": [],
      "name": "get",
      "outputs": [
        {
          "components": [
            {
              "internalType": "uint256",
              "name": "investId",
              "type": "uint256"
            },
            {
              "internalType": "uint256",
              "name": "clientId",
              "type": "uint256"
            },
            {
              "internalType": "uint256",
              "name": "investerId",
              "type": "uint256"
            },
            {
              "internalType": "string",
              "name": "investType",
              "type": "string"
            },
            {
              "internalType": "uint256",
              "name": "user_value",
              "type": "uint256"
            },
            {
              "internalType": "uint256",
              "name": "project_id",
              "type": "uint256"
            }
          ],
          "internalType": "struct Investment.Invest[]",
          "name": "",
          "type": "tuple[]"
        }
      ],
      "stateMutability": "view",
      "type": "function",
      "constant": true
    },
    {
      "inputs": [],
      "name": "ReadInvesters",
      "outputs": [
        {
          "components": [
            {
              "internalType": "uint256",
              "name": "investId",
              "type": "uint256"
            },
            {
              "internalType": "uint256",
              "name": "clientId",
              "type": "uint256"
            },
            {
              "internalType": "uint256",
              "name": "investerId",
              "type": "uint256"
            },
            {
              "internalType": "string",
              "name": "investType",
              "type": "string"
            },
            {
              "internalType": "uint256",
              "name": "user_value",
              "type": "uint256"
            },
            {
              "internalType": "uint256",
              "name": "project_id",
              "type": "uint256"
            }
          ],
          "internalType": "struct Investment.Invest[]",
          "name": "",
          "type": "tuple[]"
        }
      ],
      "stateMutability": "view",
      "type": "function",
      "constant": true
    },
    {
      "inputs": [
        {
          "internalType": "uint256",
          "name": "investerId",
          "type": "uint256"
        },
        {
          "internalType": "uint256",
          "name": "clientId",
          "type": "uint256"
        },
        {
          "internalType": "string",
          "name": "investType",
          "type": "string"
        },
        {
          "internalType": "uint256",
          "name": "uservalue",
          "type": "uint256"
        },
        {
          "internalType": "uint256",
          "name": "projectid",
          "type": "uint256"
        }
      ],
      "name": "AddInvest",
      "outputs": [
        {
          "internalType": "uint256",
          "name": "",
          "type": "uint256"
        }
      ],
      "stateMutability": "nonpayable",
      "type": "function"
    },
    {
      "inputs": [
        {
          "internalType": "uint256",
          "name": "userId",
          "type": "uint256"
        }
      ],
      "name": "ShowAllUserInvestments",
      "outputs": [
        {
          "components": [
            {
              "internalType": "uint256",
              "name": "investId",
              "type": "uint256"
            },
            {
              "internalType": "uint256",
              "name": "clientId",
              "type": "uint256"
            },
            {
              "internalType": "uint256",
              "name": "investerId",
              "type": "uint256"
            },
            {
              "internalType": "string",
              "name": "investType",
              "type": "string"
            },
            {
              "internalType": "uint256",
              "name": "user_value",
              "type": "uint256"
            },
            {
              "internalType": "uint256",
              "name": "project_id",
              "type": "uint256"
            }
          ],
          "internalType": "struct Investment.Invest[]",
          "name": "",
          "type": "tuple[]"
        }
      ],
      "stateMutability": "nonpayable",
      "type": "function"
    },
    {
      "inputs": [
        {
          "internalType": "uint256",
          "name": "userId",
          "type": "uint256"
        },
        {
          "internalType": "uint256",
          "name": "investId",
          "type": "uint256"
        }
      ],
      "name": "DeleteInvestment",
      "outputs": [
        {
          "internalType": "uint256",
          "name": "",
          "type": "uint256"
        }
      ],
      "stateMutability": "nonpayable",
      "type": "function"
    },
    {
      "inputs": [
        {
          "internalType": "uint256",
          "name": "userId",
          "type": "uint256"
        },
        {
          "internalType": "uint256",
          "name": "investerId",
          "type": "uint256"
        },
        {
          "internalType": "uint256",
          "name": "investid",
          "type": "uint256"
        },
        {
          "internalType": "uint256",
          "name": "uservalue",
          "type": "uint256"
        },
        {
          "internalType": "uint256",
          "name": "projectid",
          "type": "uint256"
        },
        {
          "internalType": "string",
          "name": "investtype",
          "type": "string"
        },
        {
          "internalType": "uint256",
          "name": "user_value",
          "type": "uint256"
        }
      ],
      "name": "UpdateUserInvest",
      "outputs": [
        {
          "internalType": "uint256",
          "name": "",
          "type": "uint256"
        }
      ],
      "stateMutability": "nonpayable",
      "type": "function"
    },
    {
      "inputs": [
        {
          "internalType": "uint256",
          "name": "id",
          "type": "uint256"
        },
        {
          "internalType": "string",
          "name": "name",
          "type": "string"
        },
        {
          "internalType": "uint256",
          "name": "money",
          "type": "uint256"
        },
        {
          "internalType": "string",
          "name": "currencyType",
          "type": "string"
        },
        {
          "internalType": "uint256",
          "name": "userId",
          "type": "uint256"
        }
      ],
      "name": "AddWallet",
      "outputs": [
        {
          "internalType": "uint256",
          "name": "",
          "type": "uint256"
        }
      ],
      "stateMutability": "nonpayable",
      "type": "function"
    },
    {
      "inputs": [
        {
          "internalType": "uint256",
          "name": "userId",
          "type": "uint256"
        }
      ],
      "name": "ShowUserWallet",
      "outputs": [
        {
          "components": [
            {
              "internalType": "uint256",
              "name": "id",
              "type": "uint256"
            },
            {
              "internalType": "string",
              "name": "name",
              "type": "string"
            },
            {
              "internalType": "uint256",
              "name": "money",
              "type": "uint256"
            },
            {
              "internalType": "string",
              "name": "currencyType",
              "type": "string"
            },
            {
              "internalType": "uint256",
              "name": "userId",
              "type": "uint256"
            }
          ],
          "internalType": "struct Investment.Wallet",
          "name": "",
          "type": "tuple"
        }
      ],
      "stateMutability": "nonpayable",
      "type": "function"
    },
    {
      "inputs": [
        {
          "internalType": "uint256",
          "name": "userId",
          "type": "uint256"
        },
        {
          "internalType": "string",
          "name": "name",
          "type": "string"
        },
        {
          "internalType": "uint256",
          "name": "newMoney",
          "type": "uint256"
        },
        {
          "internalType": "string",
          "name": "currencyType",
          "type": "string"
        }
      ],
      "name": "UpdateUserWallet",
      "outputs": [
        {
          "internalType": "uint256",
          "name": "",
          "type": "uint256"
        }
      ],
      "stateMutability": "nonpayable",
      "type": "function"
    },
    {
      "inputs": [
        {
          "internalType": "string",
          "name": "name",
          "type": "string"
        },
        {
          "internalType": "uint256",
          "name": "companyId",
          "type": "uint256"
        },
        {
          "internalType": "string",
          "name": "country",
          "type": "string"
        },
        {
          "internalType": "uint256",
          "name": "last",
          "type": "uint256"
        },
        {
          "internalType": "uint256",
          "name": "hight",
          "type": "uint256"
        },
        {
          "internalType": "uint256",
          "name": "low",
          "type": "uint256"
        },
        {
          "internalType": "uint256",
          "name": "changePercentage",
          "type": "uint256"
        }
      ],
      "name": "AddCompanyInvest",
      "outputs": [
        {
          "internalType": "uint256",
          "name": "",
          "type": "uint256"
        }
      ],
      "stateMutability": "nonpayable",
      "type": "function"
    },
    {
      "inputs": [
        {
          "internalType": "uint256",
          "name": "companyId",
          "type": "uint256"
        },
        {
          "internalType": "uint256",
          "name": "investId",
          "type": "uint256"
        }
      ],
      "name": "DeleteCompanyInvestment",
      "outputs": [
        {
          "internalType": "uint256",
          "name": "",
          "type": "uint256"
        }
      ],
      "stateMutability": "nonpayable",
      "type": "function"
    },
    {
      "inputs": [
        {
          "internalType": "uint256",
          "name": "companyId",
          "type": "uint256"
        },
        {
          "internalType": "uint256",
          "name": "investId",
          "type": "uint256"
        },
        {
          "internalType": "uint256",
          "name": "low",
          "type": "uint256"
        },
        {
          "internalType": "uint256",
          "name": "hight",
          "type": "uint256"
        },
        {
          "internalType": "uint256",
          "name": "last",
          "type": "uint256"
        }
      ],
      "name": "UpdateCompanyInvest",
      "outputs": [
        {
          "internalType": "uint256",
          "name": "",
          "type": "uint256"
        }
      ],
      "stateMutability": "nonpayable",
      "type": "function"
    },
    {
      "inputs": [
        {
          "internalType": "uint256",
          "name": "companyId",
          "type": "uint256"
        }
      ],
      "name": "ShowAllCompanyInvestments",
      "outputs": [
        {
          "components": [
            {
              "internalType": "uint256",
              "name": "cInvstId",
              "type": "uint256"
            },
            {
              "internalType": "string",
              "name": "name",
              "type": "string"
            },
            {
              "internalType": "uint256",
              "name": "companyId",
              "type": "uint256"
            },
            {
              "internalType": "string",
              "name": "country",
              "type": "string"
            },
            {
              "internalType": "uint256",
              "name": "last",
              "type": "uint256"
            },
            {
              "internalType": "uint256",
              "name": "hight",
              "type": "uint256"
            },
            {
              "internalType": "uint256",
              "name": "low",
              "type": "uint256"
            },
            {
              "internalType": "uint256",
              "name": "changePercentage",
              "type": "uint256"
            }
          ],
          "internalType": "struct Investment.CompanyInvestment[]",
          "name": "",
          "type": "tuple[]"
        }
      ],
      "stateMutability": "nonpayable",
      "type": "function"
    }
  ],
  "bytecode": "0x608060405260008055600060035534801561001957600080fd5b506135cc806100296000396000f3fe608060405234801561001057600080fd5b50600436106101375760003560e01c80636dc89cf7116100b8578063988b048a1161007c578063988b048a146103e4578063d89c012214610414578063dea1b2f914610444578063ed4cb7e014610474578063f4d9f93c146104a4578063f83cca4d146104d457610137565b80636dc89cf7146102e0578063781f2260146103105780637ad71f72146103455780638af796ca14610379578063955d9d1b146103b057610137565b80633262a3e0116100ff5780633262a3e0146101fb57806341c1bb1a1461022b578063456411a71461025b5780635f48a4821461028b5780636d4ce63c146102c257610137565b8063058c021d1461013c57806306661abd1461017157806314af34031461018f5780631cebf34e146101bf57806329806896146101dd575b600080fd5b6101566004803603810190610151919061255e565b610504565b60405161016896959493929190612633565b60405180910390f35b6101796105d8565b604051610186919061269b565b60405180910390f35b6101a960048036038101906101a491906127eb565b6105de565b6040516101b6919061269b565b60405180910390f35b6101c7610721565b6040516101d49190612a26565b60405180910390f35b6101e5610844565b6040516101f2919061269b565b60405180910390f35b61021560048036038101906102109190612a48565b61084a565b604051610222919061269b565b60405180910390f35b6102456004803603810190610240919061255e565b610b12565b6040516102529190612c60565b60405180910390f35b61027560048036038101906102709190612c82565b610de8565b604051610282919061269b565b60405180910390f35b6102a560048036038101906102a0919061255e565b610efb565b6040516102b9989796959493929190612d35565b60405180910390f35b6102ca611053565b6040516102d79190612a26565b60405180910390f35b6102fa60048036038101906102f5919061255e565b611176565b6040516103079190612a26565b60405180910390f35b61032a6004803603810190610325919061255e565b611390565b60405161033c96959493929190612633565b60405180910390f35b61035f600480360381019061035a919061255e565b611454565b604051610370959493929190612dc1565b60405180910390f35b610393600480360381019061038e919061255e565b6115aa565b6040516103a7989796959493929190612d35565b60405180910390f35b6103ca60048036038101906103c5919061255e565b611712565b6040516103db959493929190612dc1565b60405180910390f35b6103fe60048036038101906103f99190612e22565b611858565b60405161040b919061269b565b60405180910390f35b61042e60048036038101906104299190612e62565b611950565b60405161043b919061269b565b60405180910390f35b61045e6004803603810190610459919061255e565b611bdc565b60405161046b9190612f9d565b60405180910390f35b61048e60048036038101906104899190612fbf565b611db1565b60405161049b919061269b565b60405180910390f35b6104be60048036038101906104b9919061303a565b6120f8565b6040516104cb919061269b565b60405180910390f35b6104ee60048036038101906104e99190612e22565b61227a565b6040516104fb919061269b565b60405180910390f35b6007818154811061051457600080fd5b906000526020600020906006020160009150905080600001549080600101549080600201549080600301805461054990613143565b80601f016020809104026020016040519081016040528092919081815260200182805461057590613143565b80156105c25780601f10610597576101008083540402835291602001916105c2565b820191906000526020600020905b8154815290600101906020018083116105a557829003601f168201915b5050505050908060040154908060050154905086565b60005481565b60008060008154809291906105f2906131a3565b919050555060006040518060c00160405280600054815260200187815260200188815260200186815260200185815260200184815250905080600460008054815260200190815260200160002060008201518160000155602082015181600101556040820151816002015560608201518160030190816106729190613397565b506080820151816004015560a08201518160050155905050600760046000805481526020019081526020016000209080600181540180825580915050600190039060005260206000209060060201600090919091909150600082015481600001556001820154816001015560028201548160020155600382018160030190816106fb919061347f565b506004820154816004015560058201548160050155505060005491505095945050505050565b60606007805480602002602001604051908101604052809291908181526020016000905b8282101561083b57838290600052602060002090600602016040518060c001604052908160008201548152602001600182015481526020016002820154815260200160038201805461079690613143565b80601f01602080910402602001604051908101604052809291908181526020018280546107c290613143565b801561080f5780601f106107e45761010080835404028352916020019161080f565b820191906000526020600020905b8154815290600101906020018083116107f257829003601f168201915b505050505081526020016004820154815260200160058201548152505081526020019060010190610745565b50505050905090565b60035481565b600080600560008781526020019081526020016000206040518060a00160405290816000820154815260200160018201805461088590613143565b80601f01602080910402602001604051908101604052809291908181526020018280546108b190613143565b80156108fe5780601f106108d3576101008083540402835291602001916108fe565b820191906000526020600020905b8154815290600101906020018083116108e157829003601f168201915b505050505081526020016002820154815260200160038201805461092190613143565b80601f016020809104026020016040519081016040528092919081815260200182805461094d90613143565b801561099a5780601f1061096f5761010080835404028352916020019161099a565b820191906000526020600020905b81548152906001019060200180831161097d57829003601f168201915b50505050508152602001600482015481525050905060006040518060a00160405280836000015181526020018781526020018681526020018581526020018881525090508060056000898152602001908152602001600020600082015181600001556020820151816001019081610a119190613397565b50604082015181600201556060820151816003019081610a319190613397565b506080820151816004015590505060005b600880549050811015610b03578760088281548110610a6457610a63613567565b5b90600052602060002090600502016004015403610af0578160088281548110610a9057610a8f613567565b5b9060005260206000209060050201600082015181600001556020820151816001019081610abd9190613397565b50604082015181600201556060820151816003019081610add9190613397565b5060808201518160040155905050610b03565b8080610afb906131a3565b915050610a42565b50600192505050949350505050565b606060026000610b22919061238a565b60005b600980549050811015610c27578260098281548110610b4757610b46613567565b5b90600052602060002090600802016002015403610c1457600260098281548110610b7457610b73613567565b5b906000526020600020906008020190806001815401808255809150506001900390600052602060002090600802016000909190919091506000820154816000015560018201816001019081610bc9919061347f565b506002820154816002015560038201816003019081610be8919061347f565b506004820154816004015560058201548160050155600682015481600601556007820154816007015550505b8080610c1f906131a3565b915050610b25565b506002805480602002602001604051908101604052809291908181526020016000905b82821015610ddd57838290600052602060002090600802016040518061010001604052908160008201548152602001600182018054610c8890613143565b80601f0160208091040260200160405190810160405280929190818152602001828054610cb490613143565b8015610d015780601f10610cd657610100808354040283529160200191610d01565b820191906000526020600020905b815481529060010190602001808311610ce457829003601f168201915b5050505050815260200160028201548152602001600382018054610d2490613143565b80601f0160208091040260200160405190810160405280929190818152602001828054610d5090613143565b8015610d9d5780601f10610d7257610100808354040283529160200191610d9d565b820191906000526020600020905b815481529060010190602001808311610d8057829003601f168201915b5050505050815260200160048201548152602001600582015481526020016006820154815260200160078201548152505081526020019060010190610c4a565b505050509050919050565b6000806040518060a001604052808881526020018781526020018681526020018581526020018481525090508060056000898152602001908152602001600020600082015181600001556020820151816001019081610e479190613397565b50604082015181600201556060820151816003019081610e679190613397565b50608082015181600401559050506008819080600181540180825580915050600190039060005260206000209060050201600090919091909150600082015181600001556020820151816001019081610ec09190613397565b50604082015181600201556060820151816003019081610ee09190613397565b50608082015181600401555050600191505095945050505050565b6006602052806000526040600020600091509050806000015490806001018054610f2490613143565b80601f0160208091040260200160405190810160405280929190818152602001828054610f5090613143565b8015610f9d5780601f10610f7257610100808354040283529160200191610f9d565b820191906000526020600020905b815481529060010190602001808311610f8057829003601f168201915b505050505090806002015490806003018054610fb890613143565b80601f0160208091040260200160405190810160405280929190818152602001828054610fe490613143565b80156110315780601f1061100657610100808354040283529160200191611031565b820191906000526020600020905b81548152906001019060200180831161101457829003601f168201915b5050505050908060040154908060050154908060060154908060070154905088565b60606001805480602002602001604051908101604052809291908181526020016000905b8282101561116d57838290600052602060002090600602016040518060c00160405290816000820154815260200160018201548152602001600282015481526020016003820180546110c890613143565b80601f01602080910402602001604051908101604052809291908181526020018280546110f490613143565b80156111415780601f1061111657610100808354040283529160200191611141565b820191906000526020600020905b81548152906001019060200180831161112457829003601f168201915b505050505081526020016004820154815260200160058201548152505081526020019060010190611077565b50505050905090565b60606001600061118691906123ae565b60005b60078054905081101561126c5782600782815481106111ab576111aa613567565b5b90600052602060002090600602016001015403611259576001600782815481106111d8576111d7613567565b5b9060005260206000209060060201908060018154018082558091505060019003906000526020600020906006020160009091909190915060008201548160000155600182015481600101556002820154816002015560038201816003019081611241919061347f565b50600482015481600401556005820154816005015550505b8080611264906131a3565b915050611189565b506001805480602002602001604051908101604052809291908181526020016000905b8282101561138557838290600052602060002090600602016040518060c00160405290816000820154815260200160018201548152602001600282015481526020016003820180546112e090613143565b80601f016020809104026020016040519081016040528092919081815260200182805461130c90613143565b80156113595780601f1061132e57610100808354040283529160200191611359565b820191906000526020600020905b81548152906001019060200180831161133c57829003601f168201915b50505050508152602001600482015481526020016005820154815250508152602001906001019061128f565b505050509050919050565b60046020528060005260406000206000915090508060000154908060010154908060020154908060030180546113c590613143565b80601f01602080910402602001604051908101604052809291908181526020018280546113f190613143565b801561143e5780601f106114135761010080835404028352916020019161143e565b820191906000526020600020905b81548152906001019060200180831161142157829003601f168201915b5050505050908060040154908060050154905086565b6008818154811061146457600080fd5b906000526020600020906005020160009150905080600001549080600101805461148d90613143565b80601f01602080910402602001604051908101604052809291908181526020018280546114b990613143565b80156115065780601f106114db57610100808354040283529160200191611506565b820191906000526020600020905b8154815290600101906020018083116114e957829003601f168201915b50505050509080600201549080600301805461152190613143565b80601f016020809104026020016040519081016040528092919081815260200182805461154d90613143565b801561159a5780601f1061156f5761010080835404028352916020019161159a565b820191906000526020600020905b81548152906001019060200180831161157d57829003601f168201915b5050505050908060040154905085565b600981815481106115ba57600080fd5b90600052602060002090600802016000915090508060000154908060010180546115e390613143565b80601f016020809104026020016040519081016040528092919081815260200182805461160f90613143565b801561165c5780601f106116315761010080835404028352916020019161165c565b820191906000526020600020905b81548152906001019060200180831161163f57829003601f168201915b50505050509080600201549080600301805461167790613143565b80601f01602080910402602001604051908101604052809291908181526020018280546116a390613143565b80156116f05780601f106116c5576101008083540402835291602001916116f0565b820191906000526020600020905b8154815290600101906020018083116116d357829003601f168201915b5050505050908060040154908060050154908060060154908060070154905088565b600560205280600052604060002060009150905080600001549080600101805461173b90613143565b80601f016020809104026020016040519081016040528092919081815260200182805461176790613143565b80156117b45780601f10611789576101008083540402835291602001916117b4565b820191906000526020600020905b81548152906001019060200180831161179757829003601f168201915b5050505050908060020154908060030180546117cf90613143565b80601f01602080910402602001604051908101604052809291908181526020018280546117fb90613143565b80156118485780601f1061181d57610100808354040283529160200191611848565b820191906000526020600020905b81548152906001019060200180831161182b57829003601f168201915b5050505050908060040154905085565b600080600090505b60078054905081101561194457836007828154811061188257611881613567565b5b9060005260206000209060060201600101541480156118c5575082600782815481106118b1576118b0613567565b5b906000526020600020906006020160000154145b1561193157600781815481106118de576118dd613567565b5b90600052602060002090600602016000808201600090556001820160009055600282016000905560038201600061191591906123d2565b600482016000905560058201600090555050600191505061194a565b808061193c906131a3565b915050611860565b50600090505b92915050565b600080600460008881526020019081526020016000206040518060c001604052908160008201548152602001600182015481526020016002820154815260200160038201805461199f90613143565b80601f01602080910402602001604051908101604052809291908181526020018280546119cb90613143565b8015611a185780601f106119ed57610100808354040283529160200191611a18565b820191906000526020600020905b8154815290600101906020018083116119fb57829003601f168201915b5050505050815260200160048201548152602001600582015481525050905060006040518060c001604052808360000151815260200183602001518152602001836040015181526020018681526020018581526020018360a00151815250905080600460008a81526020019081526020016000206000820151816000015560208201518160010155604082015181600201556060820151816003019081611abf9190613397565b506080820151816004015560a0820151816005015590505060005b600780549050811015611bca578a60078281548110611afc57611afb613567565b5b906000526020600020906006020160010154148015611b3f57508960078281548110611b2b57611b2a613567565b5b906000526020600020906006020160020154145b15611bb7578160078281548110611b5957611b58613567565b5b90600052602060002090600602016000820151816000015560208201518160010155604082015181600201556060820151816003019081611b9a9190613397565b506080820151816004015560a08201518160050155905050611bca565b8080611bc2906131a3565b915050611ada565b50600192505050979650505050505050565b611be4612412565b60005b600880549050811015611daa578260088281548110611c0957611c08613567565b5b90600052602060002090600502016004015403611d975760088181548110611c3457611c33613567565b5b90600052602060002090600502016040518060a001604052908160008201548152602001600182018054611c6790613143565b80601f0160208091040260200160405190810160405280929190818152602001828054611c9390613143565b8015611ce05780601f10611cb557610100808354040283529160200191611ce0565b820191906000526020600020905b815481529060010190602001808311611cc357829003601f168201915b5050505050815260200160028201548152602001600382018054611d0390613143565b80601f0160208091040260200160405190810160405280929190818152602001828054611d2f90613143565b8015611d7c5780601f10611d5157610100808354040283529160200191611d7c565b820191906000526020600020905b815481529060010190602001808311611d5f57829003601f168201915b50505050508152602001600482015481525050915050611dac565b8080611da2906131a3565b915050611be7565b505b919050565b600080600660008781526020019081526020016000206040518061010001604052908160008201548152602001600182018054611ded90613143565b80601f0160208091040260200160405190810160405280929190818152602001828054611e1990613143565b8015611e665780601f10611e3b57610100808354040283529160200191611e66565b820191906000526020600020905b815481529060010190602001808311611e4957829003601f168201915b5050505050815260200160028201548152602001600382018054611e8990613143565b80601f0160208091040260200160405190810160405280929190818152602001828054611eb590613143565b8015611f025780601f10611ed757610100808354040283529160200191611f02565b820191906000526020600020905b815481529060010190602001808311611ee557829003601f168201915b5050505050815260200160048201548152602001600582015481526020016006820154815260200160078201548152505090506000604051806101000160405280836000015181526020018360200151815260200183604001518152602001836060015181526020018581526020018681526020018781526020018360e0015181525090508060066000898152602001908152602001600020600082015181600001556020820151816001019081611fba9190613397565b50604082015181600201556060820151816003019081611fda9190613397565b506080820151816004015560a0820151816005015560c0820151816006015560e0820151816007015590505060005b6009805490508110156120e857876009828154811061202b5761202a613567565b5b906000526020600020906008020160000154036120d557816009828154811061205757612056613567565b5b90600052602060002090600802016000820151816000015560208201518160010190816120849190613397565b506040820151816002015560608201518160030190816120a49190613397565b506080820151816004015560a0820151816005015560c0820151816006015560e082015181600701559050506120e8565b80806120e0906131a3565b915050612009565b5060019250505095945050505050565b60006003600081548092919061210d906131a3565b9190505550600060405180610100016040528060035481526020018a8152602001898152602001888152602001878152602001868152602001858152602001848152509050806006600060035481526020019081526020016000206000820151816000015560208201518160010190816121879190613397565b506040820151816002015560608201518160030190816121a79190613397565b506080820151816004015560a0820151816005015560c0820151816006015560e08201518160070155905050600981908060018154018082558091505060019003906000526020600020906008020160009091909190915060008201518160000155602082015181600101908161221e9190613397565b5060408201518160020155606082015181600301908161223e9190613397565b506080820151816004015560a0820151816005015560c0820151816006015560e082015181600701555050600354915050979650505050505050565b600080600090505b60098054905081101561237e5783600982815481106122a4576122a3613567565b5b9060005260206000209060080201600201541480156122e7575082600982815481106122d3576122d2613567565b5b906000526020600020906008020160000154145b1561236b5760098181548110612300576122ff613567565b5b906000526020600020906008020160008082016000905560018201600061232791906123d2565b600282016000905560038201600061233f91906123d2565b600482016000905560058201600090556006820160009055600782016000905550506001915050612384565b8080612376906131a3565b915050612282565b50600090505b92915050565b50805460008255600802906000526020600020908101906123ab9190612441565b50565b50805460008255600602906000526020600020908101906123cf91906124a8565b50565b5080546123de90613143565b6000825580601f106123f0575061240f565b601f01602090049060005260206000209081019061240e91906124f7565b5b50565b6040518060a0016040528060008152602001606081526020016000815260200160608152602001600081525090565b5b808211156124a45760008082016000905560018201600061246391906123d2565b600282016000905560038201600061247b91906123d2565b600482016000905560058201600090556006820160009055600782016000905550600801612442565b5090565b5b808211156124f357600080820160009055600182016000905560028201600090556003820160006124da91906123d2565b60048201600090556005820160009055506006016124a9565b5090565b5b808211156125105760008160009055506001016124f8565b5090565b6000604051905090565b600080fd5b600080fd5b6000819050919050565b61253b81612528565b811461254657600080fd5b50565b60008135905061255881612532565b92915050565b6000602082840312156125745761257361251e565b5b600061258284828501612549565b91505092915050565b61259481612528565b82525050565b600081519050919050565b600082825260208201905092915050565b60005b838110156125d45780820151818401526020810190506125b9565b838111156125e3576000848401525b50505050565b6000601f19601f8301169050919050565b60006126058261259a565b61260f81856125a5565b935061261f8185602086016125b6565b612628816125e9565b840191505092915050565b600060c082019050612648600083018961258b565b612655602083018861258b565b612662604083018761258b565b818103606083015261267481866125fa565b9050612683608083018561258b565b61269060a083018461258b565b979650505050505050565b60006020820190506126b0600083018461258b565b92915050565b600080fd5b600080fd5b7f4e487b7100000000000000000000000000000000000000000000000000000000600052604160045260246000fd5b6126f8826125e9565b810181811067ffffffffffffffff82111715612717576127166126c0565b5b80604052505050565b600061272a612514565b905061273682826126ef565b919050565b600067ffffffffffffffff821115612756576127556126c0565b5b61275f826125e9565b9050602081019050919050565b82818337600083830152505050565b600061278e6127898461273b565b612720565b9050828152602081018484840111156127aa576127a96126bb565b5b6127b584828561276c565b509392505050565b600082601f8301126127d2576127d16126b6565b5b81356127e284826020860161277b565b91505092915050565b600080600080600060a086880312156128075761280661251e565b5b600061281588828901612549565b955050602061282688828901612549565b945050604086013567ffffffffffffffff81111561284757612846612523565b5b612853888289016127bd565b935050606061286488828901612549565b925050608061287588828901612549565b9150509295509295909350565b600081519050919050565b600082825260208201905092915050565b6000819050602082019050919050565b6128b781612528565b82525050565b600082825260208201905092915050565b60006128d98261259a565b6128e381856128bd565b93506128f38185602086016125b6565b6128fc816125e9565b840191505092915050565b600060c08301600083015161291f60008601826128ae565b50602083015161293260208601826128ae565b50604083015161294560408601826128ae565b506060830151848203606086015261295d82826128ce565b915050608083015161297260808601826128ae565b5060a083015161298560a08601826128ae565b508091505092915050565b600061299c8383612907565b905092915050565b6000602082019050919050565b60006129bc82612882565b6129c6818561288d565b9350836020820285016129d88561289e565b8060005b85811015612a1457848403895281516129f58582612990565b9450612a00836129a4565b925060208a019950506001810190506129dc565b50829750879550505050505092915050565b60006020820190508181036000830152612a4081846129b1565b905092915050565b60008060008060808587031215612a6257612a6161251e565b5b6000612a7087828801612549565b945050602085013567ffffffffffffffff811115612a9157612a90612523565b5b612a9d878288016127bd565b9350506040612aae87828801612549565b925050606085013567ffffffffffffffff811115612acf57612ace612523565b5b612adb878288016127bd565b91505092959194509250565b600081519050919050565b600082825260208201905092915050565b6000819050602082019050919050565b600061010083016000830151612b2c60008601826128ae565b5060208301518482036020860152612b4482826128ce565b9150506040830151612b5960408601826128ae565b5060608301518482036060860152612b7182826128ce565b9150506080830151612b8660808601826128ae565b5060a0830151612b9960a08601826128ae565b5060c0830151612bac60c08601826128ae565b5060e0830151612bbf60e08601826128ae565b508091505092915050565b6000612bd68383612b13565b905092915050565b6000602082019050919050565b6000612bf682612ae7565b612c008185612af2565b935083602082028501612c1285612b03565b8060005b85811015612c4e5784840389528151612c2f8582612bca565b9450612c3a83612bde565b925060208a01995050600181019050612c16565b50829750879550505050505092915050565b60006020820190508181036000830152612c7a8184612beb565b905092915050565b600080600080600060a08688031215612c9e57612c9d61251e565b5b6000612cac88828901612549565b955050602086013567ffffffffffffffff811115612ccd57612ccc612523565b5b612cd9888289016127bd565b9450506040612cea88828901612549565b935050606086013567ffffffffffffffff811115612d0b57612d0a612523565b5b612d17888289016127bd565b9250506080612d2888828901612549565b9150509295509295909350565b600061010082019050612d4b600083018b61258b565b8181036020830152612d5d818a6125fa565b9050612d6c604083018961258b565b8181036060830152612d7e81886125fa565b9050612d8d608083018761258b565b612d9a60a083018661258b565b612da760c083018561258b565b612db460e083018461258b565b9998505050505050505050565b600060a082019050612dd6600083018861258b565b8181036020830152612de881876125fa565b9050612df7604083018661258b565b8181036060830152612e0981856125fa565b9050612e18608083018461258b565b9695505050505050565b60008060408385031215612e3957612e3861251e565b5b6000612e4785828601612549565b9250506020612e5885828601612549565b9150509250929050565b600080600080600080600060e0888a031215612e8157612e8061251e565b5b6000612e8f8a828b01612549565b9750506020612ea08a828b01612549565b9650506040612eb18a828b01612549565b9550506060612ec28a828b01612549565b9450506080612ed38a828b01612549565b93505060a088013567ffffffffffffffff811115612ef457612ef3612523565b5b612f008a828b016127bd565b92505060c0612f118a828b01612549565b91505092959891949750929550565b600060a083016000830151612f3860008601826128ae565b5060208301518482036020860152612f5082826128ce565b9150506040830151612f6560408601826128ae565b5060608301518482036060860152612f7d82826128ce565b9150506080830151612f9260808601826128ae565b508091505092915050565b60006020820190508181036000830152612fb78184612f20565b905092915050565b600080600080600060a08688031215612fdb57612fda61251e565b5b6000612fe988828901612549565b9550506020612ffa88828901612549565b945050604061300b88828901612549565b935050606061301c88828901612549565b925050608061302d88828901612549565b9150509295509295909350565b600080600080600080600060e0888a0312156130595761305861251e565b5b600088013567ffffffffffffffff81111561307757613076612523565b5b6130838a828b016127bd565b97505060206130948a828b01612549565b965050604088013567ffffffffffffffff8111156130b5576130b4612523565b5b6130c18a828b016127bd565b95505060606130d28a828b01612549565b94505060806130e38a828b01612549565b93505060a06130f48a828b01612549565b92505060c06131058a828b01612549565b91505092959891949750929550565b7f4e487b7100000000000000000000000000000000000000000000000000000000600052602260045260246000fd5b6000600282049050600182168061315b57607f821691505b60208210810361316e5761316d613114565b5b50919050565b7f4e487b7100000000000000000000000000000000000000000000000000000000600052601160045260246000fd5b60006131ae82612528565b91507fffffffffffffffffffffffffffffffffffffffffffffffffffffffffffffffff82036131e0576131df613174565b5b600182019050919050565b60008190508160005260206000209050919050565b60006020601f8301049050919050565b600082821b905092915050565b60006008830261324d7fffffffffffffffffffffffffffffffffffffffffffffffffffffffffffffffff82613210565b6132578683613210565b95508019841693508086168417925050509392505050565b6000819050919050565b600061329461328f61328a84612528565b61326f565b612528565b9050919050565b6000819050919050565b6132ae83613279565b6132c26132ba8261329b565b84845461321d565b825550505050565b600090565b6132d76132ca565b6132e28184846132a5565b505050565b5b81811015613306576132fb6000826132cf565b6001810190506132e8565b5050565b601f82111561334b5761331c816131eb565b61332584613200565b81016020851015613334578190505b61334861334085613200565b8301826132e7565b50505b505050565b600082821c905092915050565b600061336e60001984600802613350565b1980831691505092915050565b6000613387838361335d565b9150826002028217905092915050565b6133a08261259a565b67ffffffffffffffff8111156133b9576133b86126c0565b5b6133c38254613143565b6133ce82828561330a565b600060209050601f83116001811461340157600084156133ef578287015190505b6133f9858261337b565b865550613461565b601f19841661340f866131eb565b60005b8281101561343757848901518255600182019150602085019450602081019050613412565b868310156134545784890151613450601f89168261335d565b8355505b6001600288020188555050505b505050505050565b60008154905061347881613143565b9050919050565b81810361348d575050613565565b61349682613469565b67ffffffffffffffff8111156134af576134ae6126c0565b5b6134b98254613143565b6134c482828561330a565b6000601f8311600181146134f357600084156134e1578287015490505b6134eb858261337b565b86555061355e565b601f198416613501876131eb565b965061350c866131eb565b60005b828110156135345784890154825560018201915060018501945060208101905061350f565b86831015613551578489015461354d601f89168261335d565b8355505b6001600288020188555050505b5050505050505b565b7f4e487b7100000000000000000000000000000000000000000000000000000000600052603260045260246000fdfea264697066735822122073946430ab22494d5376f89415d92f9eeafce4daee1303f9fc9089330e35c5fb64736f6c634300080f0033",
  "immutableReferences": {},
  "source": "pragma solidity >=0.7.0 <0.9.0;\r\n\r\n\r\n//first build the investment contract with properties\r\n\r\ncontract Investment\r\n{\r\n\r\n    //for generate primary key\r\n    uint public count = 0;\r\n    Invest []  tempArr;\r\n    CompanyInvestment []  tempCompany;\r\n\r\n\r\n    // for company Invests \r\n    uint public cpyId = 0; \r\n\r\n    //id of invester , id of user , type \r\n    struct Wallet\r\n    {\r\n        uint id;\r\n        string name;\r\n        uint256 money;\r\n        string currencyType;\r\n        uint userId;\r\n    }\r\n    // struct for invest\r\n    struct Invest \r\n    {\r\n        uint investId;\r\n        uint clientId;\r\n        uint investerId;\r\n        string investType;\r\n        //user invest value\r\n        uint user_value;\r\n        //project id\r\n        uint project_id;\r\n    }\r\n\r\n    struct CompanyInvestment\r\n    {\r\n        uint cInvstId;\r\n\r\n        string name;\r\n     \r\n        //from database\r\n        uint companyId;\r\n        \r\n        string country;\r\n        \r\n        uint256 last;\r\n\r\n        uint256 hight;\r\n \r\n        uint256 low;\r\n\r\n        uint256 changePercentage;\r\n\r\n    }\r\n\r\n\r\n\r\n    //for generate primary key for each investment(uint)\r\n    mapping(uint => Invest) public allInvest;\r\n    //wallet mapping : \r\n    mapping(uint => Wallet) public allWallet;\r\n\r\n\r\n    //company investment mapping\r\n    mapping (uint => CompanyInvestment) public allCompanyInvestes;\r\n\r\n    Invest [] public investers; //array to store all investment\r\n\r\n    Wallet [] public wallets;\r\n\r\n    //for company invests \r\n    CompanyInvestment [] public companyInvests;\r\n\r\n\r\n    //CRUD\r\n    //C: CREATE /Add/insert\r\n    //R: read / show /print\r\n    //U: UPDATE\r\n    //D: DELETE\r\n\r\n\r\n    function get() public view returns(Invest[] memory)\r\n    {\r\n        return tempArr;\r\n    }\r\n    //function for print array - read\r\n    function ReadInvesters() public view returns(Invest [] memory)\r\n    {\r\n        return investers;\r\n    }\r\n\r\n\r\n    function AddInvest(uint investerId , uint clientId , string memory investType , uint uservalue, uint projectid) public returns (uint)\r\n    {\r\n        //increate the count for each add\r\n        count++;\r\n        Invest memory invest = Invest(count , clientId , investerId , investType,uservalue,projectid);\r\n        allInvest[count] = invest;\r\n        investers.push(allInvest[count]);\r\n        return count;\r\n    }\r\n\r\n\r\n    //function to show all user's investments\r\n\r\n    function ShowAllUserInvestments(uint userId) public returns(Invest[] memory)\r\n    {\r\n        delete tempArr;\r\n\r\n        for(uint i = 0; i <investers.length;i++ )\r\n        {\r\n            if(investers[i].clientId == userId)\r\n            {\r\n                tempArr.push(investers[i]);\r\n            }\r\n        }\r\n        return tempArr;\r\n    }\r\n\r\n    //function to delete investment for user\r\n\r\n    function DeleteInvestment(uint userId , uint investId) public  returns (uint)\r\n    {\r\n        for(uint i = 0; i <investers.length;i++)\r\n        {\r\n            if(investers[i].clientId == userId && investers[i].investId == investId)\r\n            {\r\n                delete investers[i];\r\n                return 1;\r\n            }\r\n        }\r\n        return 0;\r\n    }\r\n\r\n     //function to update user invest \r\n    function UpdateUserInvest(uint userId , uint investerId,uint investid, uint uservalue, uint projectid , string memory investtype , uint user_value) public returns(uint)\r\n    {\r\n\r\n        Invest memory oldInvest = allInvest[investid]; // old values of invest\r\n        //old values with new invest \r\n        Invest memory updatedInvest = Invest(oldInvest.investId , oldInvest.clientId ,oldInvest.investerId,investtype , user_value,oldInvest.project_id);\r\n        allInvest[investid] = updatedInvest;\r\n        for (uint i =0 ; i< investers.length;i++)\r\n        {\r\n            if(investers[i].clientId == userId && investers[i].investerId == investerId )\r\n            {\r\n                investers[i] = updatedInvest;\r\n                break;\r\n            }\r\n        }\r\n        return 1;\r\n    }\r\n\r\n    function AddWallet(uint id , string memory name , uint256 money ,string memory currencyType, uint userId) public returns(uint)\r\n    {\r\n            Wallet memory wa = Wallet(id,name,money,currencyType,userId); \r\n            allWallet[id] = wa; //add to mapping\r\n            wallets.push(wa); // add to array\r\n            return 1;\r\n    }\r\n\r\n    // show user wallet\r\n    function ShowUserWallet(uint userId) public returns (Wallet memory)\r\n    {\r\n        for(uint i=0; i < wallets.length;i++)\r\n        {\r\n            if(wallets[i].userId == userId)\r\n            {\r\n                return wallets[i];\r\n            }\r\n        }\r\n\r\n    }\r\n\r\n    //function to update money inside wallet\r\n    function UpdateUserWallet(uint userId , string memory name ,uint256 newMoney,string memory currencyType) public returns(uint)\r\n    {\r\n        Wallet memory oldWallet = allWallet[userId]; // old values of wallet\r\n        //old values with new money \r\n        Wallet memory updatedWallet = Wallet(oldWallet.id , name , newMoney ,currencyType , userId);\r\n        allWallet[userId] = updatedWallet;\r\n        for (uint i =0 ; i< wallets.length;i++)\r\n        {\r\n            if(wallets[i].userId == userId)\r\n            {\r\n                wallets[i] = updatedWallet;\r\n                break;\r\n            }\r\n        }\r\n        return 1;\r\n    }\r\n\r\n\r\n\r\n    //company Investments\r\n\r\n    function AddCompanyInvest(string memory name , uint companyId , string memory country,uint256 last,uint256 hight , uint256 low,uint256 changePercentage) public returns (uint)\r\n    {\r\n        //increate the count for each add\r\n        cpyId++;\r\n\r\n        CompanyInvestment memory invest = CompanyInvestment(cpyId, name , companyId , country,last,hight,low,changePercentage);\r\n        \r\n        allCompanyInvestes[cpyId] = invest;\r\n\r\n        companyInvests.push(invest);\r\n\r\n        return cpyId;\r\n    }\r\n\r\n\r\n\r\n    function DeleteCompanyInvestment(uint companyId , uint investId) public  returns (uint)\r\n    {\r\n        for(uint i = 0; i <companyInvests.length;i++)\r\n        {\r\n            if(companyInvests[i].companyId == companyId && companyInvests[i].cInvstId == investId)\r\n            {\r\n                delete companyInvests[i];\r\n                return 1;\r\n            }\r\n        }\r\n        return 0;\r\n    }\r\n\r\n\r\n\r\n    function UpdateCompanyInvest(uint companyId , uint investId,uint256 low,uint256 hight,uint256 last) public returns(uint)\r\n        {\r\n            CompanyInvestment memory oldcpy = allCompanyInvestes[investId]; // old values of wallet\r\n            //old values with new money \r\n            CompanyInvestment memory updatedInvestment = \r\n            CompanyInvestment(oldcpy.cInvstId , oldcpy.name ,oldcpy.companyId,oldcpy.country,last,hight,low ,oldcpy.changePercentage);\r\n            allCompanyInvestes[investId] = updatedInvestment;\r\n            for (uint i =0 ; i< companyInvests.length;i++)\r\n            {\r\n                if(companyInvests[i].cInvstId == investId)\r\n                {\r\n                    companyInvests[i] = updatedInvestment;\r\n                    break;\r\n                }\r\n            }\r\n            return 1;\r\n        }\r\n\r\n\r\nfunction ShowAllCompanyInvestments(uint companyId) public returns(CompanyInvestment[] memory)\r\n    {\r\n        delete tempCompany;\r\n\r\n        for(uint i = 0; i <companyInvests.length;i++ )\r\n        {\r\n            if(companyInvests[i].companyId == companyId)\r\n            {\r\n                tempCompany.push(companyInvests[i]);\r\n            }\r\n        }\r\n        return tempCompany;\r\n    }\r\n\r\n\r\n}",
  "sourcePath": "C:\\Users\\almou\\OneDrive\\Documents\\Django project\\CipProjectFinall\\src\\InvestmentEth\\contracts\\Investment.sol",
  "compiler": {
    "name": "solc",
    "version": "0.8.15+commit.e14f2714.Emscripten.clang"
  },
  "schemaVersion": "3.4.11",
  "updatedAt": "2023-02-19T20:40:18.016Z",
  "networkType": "ethereum",
  "devdoc": {
    "kind": "dev",
    "methods": {},
    "version": 1
  },
  "userdoc": {
    "kind": "user",
    "methods": {},
    "version": 1
  }
}